{
    "contractName": "BuyMeACoffee",
    "abi": [
        {
            "inputs": [],
            "stateMutability": "nonpayable",
            "type": "constructor"
        },
        {
            "anonymous": false,
            "inputs": [
                {
                    "indexed": true,
                    "internalType": "address",
                    "name": "from",
                    "type": "address"
                },
                {
                    "indexed": false,
                    "internalType": "uint256",
                    "name": "timestamp",
                    "type": "uint256"
                },
                {
                    "indexed": false,
                    "internalType": "string",
                    "name": "name",
                    "type": "string"
                },
                {
                    "indexed": false,
                    "internalType": "string",
                    "name": "message",
                    "type": "string"
                }
            ],
            "name": "NewMemo",
            "type": "event"
        },
        {
            "inputs": [
                {
                    "internalType": "address payable",
                    "name": "_newOwner",
                    "type": "address"
                }
            ],
            "name": "TransferWithdrawTips",
            "outputs": [],
            "stateMutability": "nonpayable",
            "type": "function"
        },
        {
            "inputs": [
                {
                    "internalType": "string",
                    "name": "_name",
                    "type": "string"
                },
                {
                    "internalType": "string",
                    "name": "_message",
                    "type": "string"
                }
            ],
            "name": "buyCoffee",
            "outputs": [],
            "stateMutability": "payable",
            "type": "function"
        },
        {
            "inputs": [
                {
                    "internalType": "string",
                    "name": "_name",
                    "type": "string"
                },
                {
                    "internalType": "string",
                    "name": "_message",
                    "type": "string"
                }
            ],
            "name": "buyTea",
            "outputs": [],
            "stateMutability": "payable",
            "type": "function"
        },
        {
            "inputs": [],
            "name": "getMemos",
            "outputs": [
                {
                    "components": [
                        {
                            "internalType": "address",
                            "name": "from",
                            "type": "address"
                        },
                        {
                            "internalType": "uint256",
                            "name": "timestamp",
                            "type": "uint256"
                        },
                        {
                            "internalType": "string",
                            "name": "name",
                            "type": "string"
                        },
                        {
                            "internalType": "string",
                            "name": "message",
                            "type": "string"
                        }
                    ],
                    "internalType": "struct BuyMeACoffee.Memo[]",
                    "name": "",
                    "type": "tuple[]"
                }
            ],
            "stateMutability": "view",
            "type": "function"
        },
        {
            "inputs": [],
            "name": "withdrawTips",
            "outputs": [],
            "stateMutability": "nonpayable",
            "type": "function"
        }
    ],
    "bytecode": "608060405234801561001057600080fd5b50600080546001600160a01b03191633179055610895806100326000396000f3fe60806040526004361061004a5760003560e01c8063204206e11461004f5780633aaa74b214610064578063865c517214610079578063911a72c8146100a4578063f116dae0146100b7575b600080fd5b61006261005d366004610668565b6100d7565b005b34801561007057600080fd5b5061006261026f565b34801561008557600080fd5b5061008e6102a3565b60405161009b9190610719565b60405180910390f35b6100626100b2366004610668565b610446565b3480156100c357600080fd5b506100626100d23660046107c0565b610496565b6000341161012c5760405162461bcd60e51b815260206004820152601a60248201527f63616e27742062757920636f6666656520666f7220667265652100000000000060448201526064015b60405180910390fd5b6040805160808101825233815242602080830191825292820185815260608301859052600180548082018255600091909152835160049091027fb10e2d527612073b26eecdfd717e6a320cf44b4afac2b0732d9fcbe2b7fa0cf6810180546001600160a01b03939093166001600160a01b031990931692909217825592517fb10e2d527612073b26eecdfd717e6a320cf44b4afac2b0732d9fcbe2b7fa0cf78401559051805193949193610207937fb10e2d527612073b26eecdfd717e6a320cf44b4afac2b0732d9fcbe2b7fa0cf80192919091019061052c565b506060820151805161022391600384019160209091019061052c565b505050336001600160a01b03167fc56140e05f516509ae28110e0f72e17558a7561630dad2647c3ae87d986e365c428484604051610263939291906107f0565b60405180910390a25050565b600080546040516001600160a01b03909116914780156108fc02929091818181858888f193505050506102a157600080fd5b565b60606001805480602002602001604051908101604052809291908181526020016000905b8282101561043d576000848152602090819020604080516080810182526004860290920180546001600160a01b031683526001810154938301939093526002830180549293929184019161031a90610825565b80601f016020809104026020016040519081016040528092919081815260200182805461034690610825565b80156103935780601f1061036857610100808354040283529160200191610393565b820191906000526020600020905b81548152906001019060200180831161037657829003601f168201915b505050505081526020016003820180546103ac90610825565b80601f01602080910402602001604051908101604052809291908181526020018280546103d890610825565b80156104255780601f106103fa57610100808354040283529160200191610425565b820191906000526020600020905b81548152906001019060200180831161040857829003601f168201915b505050505081525050815260200190600101906102c7565b50505050905090565b6000341161012c5760405162461bcd60e51b815260206004820152601760248201527f63616e2774206275792074656120666f722066726565210000000000000000006044820152606401610123565b6000546001600160a01b031633146104fc5760405162461bcd60e51b8152602060048201526024808201527f6f6e6c7920746865206f776e65722063616e207472616e7366657220746865206044820152637469707360e01b6064820152608401610123565b6040516001600160a01b038216904780156108fc02916000818181858888f1935050505061052957600080fd5b50565b82805461053890610825565b90600052602060002090601f01602090048101928261055a57600085556105a0565b82601f1061057357805160ff19168380011785556105a0565b828001600101855582156105a0579182015b828111156105a0578251825591602001919060010190610585565b506105ac9291506105b0565b5090565b5b808211156105ac57600081556001016105b1565b634e487b7160e01b600052604160045260246000fd5b600082601f8301126105ec57600080fd5b813567ffffffffffffffff80821115610607576106076105c5565b604051601f8301601f19908116603f0116810190828211818310171561062f5761062f6105c5565b8160405283815286602085880101111561064857600080fd5b836020870160208301376000602085830101528094505050505092915050565b6000806040838503121561067b57600080fd5b823567ffffffffffffffff8082111561069357600080fd5b61069f868387016105db565b935060208501359150808211156106b557600080fd5b506106c2858286016105db565b9150509250929050565b6000815180845260005b818110156106f2576020818501810151868301820152016106d6565b81811115610704576000602083870101525b50601f01601f19169290920160200192915050565b60006020808301818452808551808352604092508286019150828160051b87010184880160005b838110156107b257888303603f19018552815180516001600160a01b03168452878101518885015286810151608088860181905290610781828701826106cc565b9150506060808301519250858203818701525061079e81836106cc565b968901969450505090860190600101610740565b509098975050505050505050565b6000602082840312156107d257600080fd5b81356001600160a01b03811681146107e957600080fd5b9392505050565b83815260606020820152600061080960608301856106cc565b828103604084015261081b81856106cc565b9695505050505050565b600181811c9082168061083957607f821691505b60208210810361085957634e487b7160e01b600052602260045260246000fd5b5091905056fea26469706673582212208616534b0b453727deca7fa186b2958d9739da91e3cf482f8e34fcd4f076464e64736f6c634300080e0033",
    "sourcePath": "c:/Users/aplaz/road-to-web3-wk2/BuyMeACoffee-contracts/contracts/BuyMeACoffee.sol",
    "compiler": {
        "name": "solc",
        "version": "0.8.14+commit.80d49f37"
    },
    "functionHashes": {
        "TransferWithdrawTips(address)": "f116dae0",
        "buyCoffee(string,string)": "204206e1",
        "buyTea(string,string)": "911a72c8",
        "getMemos()": "865c5172",
        "withdrawTips()": "3aaa74b2"
    },
    "gasEstimates": {
        "creation": {
            "codeDepositCost": "439400",
            "executionCost": "24709",
            "totalCost": "464109"
        },
        "external": {
            "TransferWithdrawTips(address)": "infinite",
            "buyCoffee(string,string)": "infinite",
            "buyTea(string,string)": "infinite",
            "getMemos()": "infinite",
            "withdrawTips()": "infinite"
        }
    }
}